{
  "contractName": "TestNFT",
  "abi": [
    {
      "inputs": [],
      "stateMutability": "nonpayable",
      "type": "constructor"
    },
    {
      "anonymous": false,
      "inputs": [
        {
          "indexed": true,
          "internalType": "address",
          "name": "owner",
          "type": "address"
        },
        {
          "indexed": true,
          "internalType": "address",
          "name": "approved",
          "type": "address"
        },
        {
          "indexed": true,
          "internalType": "uint256",
          "name": "tokenId",
          "type": "uint256"
        }
      ],
      "name": "Approval",
      "type": "event"
    },
    {
      "anonymous": false,
      "inputs": [
        {
          "indexed": true,
          "internalType": "address",
          "name": "owner",
          "type": "address"
        },
        {
          "indexed": true,
          "internalType": "address",
          "name": "operator",
          "type": "address"
        },
        {
          "indexed": false,
          "internalType": "bool",
          "name": "approved",
          "type": "bool"
        }
      ],
      "name": "ApprovalForAll",
      "type": "event"
    },
    {
      "anonymous": false,
      "inputs": [
        {
          "indexed": true,
          "internalType": "address",
          "name": "previousOwner",
          "type": "address"
        },
        {
          "indexed": true,
          "internalType": "address",
          "name": "newOwner",
          "type": "address"
        }
      ],
      "name": "OwnershipTransferred",
      "type": "event"
    },
    {
      "anonymous": false,
      "inputs": [
        {
          "indexed": false,
          "internalType": "address",
          "name": "account",
          "type": "address"
        }
      ],
      "name": "Paused",
      "type": "event"
    },
    {
      "anonymous": false,
      "inputs": [
        {
          "indexed": true,
          "internalType": "bytes32",
          "name": "role",
          "type": "bytes32"
        },
        {
          "indexed": true,
          "internalType": "bytes32",
          "name": "previousAdminRole",
          "type": "bytes32"
        },
        {
          "indexed": true,
          "internalType": "bytes32",
          "name": "newAdminRole",
          "type": "bytes32"
        }
      ],
      "name": "RoleAdminChanged",
      "type": "event"
    },
    {
      "anonymous": false,
      "inputs": [
        {
          "indexed": true,
          "internalType": "bytes32",
          "name": "role",
          "type": "bytes32"
        },
        {
          "indexed": true,
          "internalType": "address",
          "name": "account",
          "type": "address"
        },
        {
          "indexed": true,
          "internalType": "address",
          "name": "sender",
          "type": "address"
        }
      ],
      "name": "RoleGranted",
      "type": "event"
    },
    {
      "anonymous": false,
      "inputs": [
        {
          "indexed": true,
          "internalType": "bytes32",
          "name": "role",
          "type": "bytes32"
        },
        {
          "indexed": true,
          "internalType": "address",
          "name": "account",
          "type": "address"
        },
        {
          "indexed": true,
          "internalType": "address",
          "name": "sender",
          "type": "address"
        }
      ],
      "name": "RoleRevoked",
      "type": "event"
    },
    {
      "anonymous": false,
      "inputs": [
        {
          "indexed": true,
          "internalType": "address",
          "name": "from",
          "type": "address"
        },
        {
          "indexed": true,
          "internalType": "address",
          "name": "to",
          "type": "address"
        },
        {
          "indexed": true,
          "internalType": "uint256",
          "name": "tokenId",
          "type": "uint256"
        }
      ],
      "name": "Transfer",
      "type": "event"
    },
    {
      "anonymous": false,
      "inputs": [
        {
          "indexed": false,
          "internalType": "address",
          "name": "account",
          "type": "address"
        }
      ],
      "name": "Unpaused",
      "type": "event"
    },
    {
      "inputs": [],
      "name": "DEFAULT_ADMIN_ROLE",
      "outputs": [
        {
          "internalType": "bytes32",
          "name": "",
          "type": "bytes32"
        }
      ],
      "stateMutability": "view",
      "type": "function",
      "constant": true
    },
    {
      "inputs": [],
      "name": "MINTER_ROLE",
      "outputs": [
        {
          "internalType": "bytes32",
          "name": "",
          "type": "bytes32"
        }
      ],
      "stateMutability": "view",
      "type": "function",
      "constant": true
    },
    {
      "inputs": [],
      "name": "PAUSER_ROLE",
      "outputs": [
        {
          "internalType": "bytes32",
          "name": "",
          "type": "bytes32"
        }
      ],
      "stateMutability": "view",
      "type": "function",
      "constant": true
    },
    {
      "inputs": [
        {
          "internalType": "address",
          "name": "to",
          "type": "address"
        },
        {
          "internalType": "uint256",
          "name": "tokenId",
          "type": "uint256"
        }
      ],
      "name": "approve",
      "outputs": [],
      "stateMutability": "nonpayable",
      "type": "function"
    },
    {
      "inputs": [
        {
          "internalType": "address",
          "name": "owner",
          "type": "address"
        }
      ],
      "name": "balanceOf",
      "outputs": [
        {
          "internalType": "uint256",
          "name": "",
          "type": "uint256"
        }
      ],
      "stateMutability": "view",
      "type": "function",
      "constant": true
    },
    {
      "inputs": [],
      "name": "baseTokenURI",
      "outputs": [
        {
          "internalType": "string",
          "name": "",
          "type": "string"
        }
      ],
      "stateMutability": "view",
      "type": "function",
      "constant": true
    },
    {
      "inputs": [
        {
          "internalType": "uint256",
          "name": "tokenId",
          "type": "uint256"
        }
      ],
      "name": "burn",
      "outputs": [],
      "stateMutability": "nonpayable",
      "type": "function"
    },
    {
      "inputs": [
        {
          "internalType": "uint256",
          "name": "tokenId",
          "type": "uint256"
        }
      ],
      "name": "getApproved",
      "outputs": [
        {
          "internalType": "address",
          "name": "",
          "type": "address"
        }
      ],
      "stateMutability": "view",
      "type": "function",
      "constant": true
    },
    {
      "inputs": [
        {
          "internalType": "bytes32",
          "name": "role",
          "type": "bytes32"
        }
      ],
      "name": "getRoleAdmin",
      "outputs": [
        {
          "internalType": "bytes32",
          "name": "",
          "type": "bytes32"
        }
      ],
      "stateMutability": "view",
      "type": "function",
      "constant": true
    },
    {
      "inputs": [
        {
          "internalType": "bytes32",
          "name": "role",
          "type": "bytes32"
        },
        {
          "internalType": "uint256",
          "name": "index",
          "type": "uint256"
        }
      ],
      "name": "getRoleMember",
      "outputs": [
        {
          "internalType": "address",
          "name": "",
          "type": "address"
        }
      ],
      "stateMutability": "view",
      "type": "function",
      "constant": true
    },
    {
      "inputs": [
        {
          "internalType": "bytes32",
          "name": "role",
          "type": "bytes32"
        }
      ],
      "name": "getRoleMemberCount",
      "outputs": [
        {
          "internalType": "uint256",
          "name": "",
          "type": "uint256"
        }
      ],
      "stateMutability": "view",
      "type": "function",
      "constant": true
    },
    {
      "inputs": [
        {
          "internalType": "bytes32",
          "name": "role",
          "type": "bytes32"
        },
        {
          "internalType": "address",
          "name": "account",
          "type": "address"
        }
      ],
      "name": "grantRole",
      "outputs": [],
      "stateMutability": "nonpayable",
      "type": "function"
    },
    {
      "inputs": [
        {
          "internalType": "bytes32",
          "name": "role",
          "type": "bytes32"
        },
        {
          "internalType": "address",
          "name": "account",
          "type": "address"
        }
      ],
      "name": "hasRole",
      "outputs": [
        {
          "internalType": "bool",
          "name": "",
          "type": "bool"
        }
      ],
      "stateMutability": "view",
      "type": "function",
      "constant": true
    },
    {
      "inputs": [
        {
          "internalType": "address",
          "name": "owner",
          "type": "address"
        },
        {
          "internalType": "address",
          "name": "operator",
          "type": "address"
        }
      ],
      "name": "isApprovedForAll",
      "outputs": [
        {
          "internalType": "bool",
          "name": "",
          "type": "bool"
        }
      ],
      "stateMutability": "view",
      "type": "function",
      "constant": true
    },
    {
      "inputs": [
        {
          "internalType": "address",
          "name": "to",
          "type": "address"
        }
      ],
      "name": "mint",
      "outputs": [],
      "stateMutability": "nonpayable",
      "type": "function"
    },
    {
      "inputs": [
        {
          "internalType": "address",
          "name": "_to",
          "type": "address"
        }
      ],
      "name": "mintTo",
      "outputs": [],
      "stateMutability": "payable",
      "type": "function",
      "payable": true
    },
    {
      "inputs": [],
      "name": "name",
      "outputs": [
        {
          "internalType": "string",
          "name": "",
          "type": "string"
        }
      ],
      "stateMutability": "view",
      "type": "function",
      "constant": true
    },
    {
      "inputs": [],
      "name": "owner",
      "outputs": [
        {
          "internalType": "address",
          "name": "",
          "type": "address"
        }
      ],
      "stateMutability": "view",
      "type": "function",
      "constant": true
    },
    {
      "inputs": [
        {
          "internalType": "uint256",
          "name": "tokenId",
          "type": "uint256"
        }
      ],
      "name": "ownerOf",
      "outputs": [
        {
          "internalType": "address",
          "name": "",
          "type": "address"
        }
      ],
      "stateMutability": "view",
      "type": "function",
      "constant": true
    },
    {
      "inputs": [],
      "name": "pause",
      "outputs": [],
      "stateMutability": "nonpayable",
      "type": "function"
    },
    {
      "inputs": [],
      "name": "paused",
      "outputs": [
        {
          "internalType": "bool",
          "name": "",
          "type": "bool"
        }
      ],
      "stateMutability": "view",
      "type": "function",
      "constant": true
    },
    {
      "inputs": [],
      "name": "proxyRegistryAddress",
      "outputs": [
        {
          "internalType": "address",
          "name": "",
          "type": "address"
        }
      ],
      "stateMutability": "view",
      "type": "function",
      "constant": true
    },
    {
      "inputs": [],
      "name": "renounceOwnership",
      "outputs": [],
      "stateMutability": "nonpayable",
      "type": "function"
    },
    {
      "inputs": [
        {
          "internalType": "bytes32",
          "name": "role",
          "type": "bytes32"
        },
        {
          "internalType": "address",
          "name": "account",
          "type": "address"
        }
      ],
      "name": "renounceRole",
      "outputs": [],
      "stateMutability": "nonpayable",
      "type": "function"
    },
    {
      "inputs": [
        {
          "internalType": "bytes32",
          "name": "role",
          "type": "bytes32"
        },
        {
          "internalType": "address",
          "name": "account",
          "type": "address"
        }
      ],
      "name": "revokeRole",
      "outputs": [],
      "stateMutability": "nonpayable",
      "type": "function"
    },
    {
      "inputs": [
        {
          "internalType": "address",
          "name": "from",
          "type": "address"
        },
        {
          "internalType": "address",
          "name": "to",
          "type": "address"
        },
        {
          "internalType": "uint256",
          "name": "tokenId",
          "type": "uint256"
        }
      ],
      "name": "safeTransferFrom",
      "outputs": [],
      "stateMutability": "nonpayable",
      "type": "function"
    },
    {
      "inputs": [
        {
          "internalType": "address",
          "name": "from",
          "type": "address"
        },
        {
          "internalType": "address",
          "name": "to",
          "type": "address"
        },
        {
          "internalType": "uint256",
          "name": "tokenId",
          "type": "uint256"
        },
        {
          "internalType": "bytes",
          "name": "_data",
          "type": "bytes"
        }
      ],
      "name": "safeTransferFrom",
      "outputs": [],
      "stateMutability": "nonpayable",
      "type": "function"
    },
    {
      "inputs": [
        {
          "internalType": "address",
          "name": "operator",
          "type": "address"
        },
        {
          "internalType": "bool",
          "name": "approved",
          "type": "bool"
        }
      ],
      "name": "setApprovalForAll",
      "outputs": [],
      "stateMutability": "nonpayable",
      "type": "function"
    },
    {
      "inputs": [
        {
          "internalType": "bytes4",
          "name": "interfaceId",
          "type": "bytes4"
        }
      ],
      "name": "supportsInterface",
      "outputs": [
        {
          "internalType": "bool",
          "name": "",
          "type": "bool"
        }
      ],
      "stateMutability": "view",
      "type": "function",
      "constant": true
    },
    {
      "inputs": [],
      "name": "symbol",
      "outputs": [
        {
          "internalType": "string",
          "name": "",
          "type": "string"
        }
      ],
      "stateMutability": "view",
      "type": "function",
      "constant": true
    },
    {
      "inputs": [
        {
          "internalType": "uint256",
          "name": "index",
          "type": "uint256"
        }
      ],
      "name": "tokenByIndex",
      "outputs": [
        {
          "internalType": "uint256",
          "name": "",
          "type": "uint256"
        }
      ],
      "stateMutability": "view",
      "type": "function",
      "constant": true
    },
    {
      "inputs": [
        {
          "internalType": "address",
          "name": "owner",
          "type": "address"
        },
        {
          "internalType": "uint256",
          "name": "index",
          "type": "uint256"
        }
      ],
      "name": "tokenOfOwnerByIndex",
      "outputs": [
        {
          "internalType": "uint256",
          "name": "",
          "type": "uint256"
        }
      ],
      "stateMutability": "view",
      "type": "function",
      "constant": true
    },
    {
      "inputs": [
        {
          "internalType": "uint256",
          "name": "_tokenId",
          "type": "uint256"
        }
      ],
      "name": "tokenURI",
      "outputs": [
        {
          "internalType": "string",
          "name": "",
          "type": "string"
        }
      ],
      "stateMutability": "view",
      "type": "function",
      "constant": true
    },
    {
      "inputs": [],
      "name": "totalSupply",
      "outputs": [
        {
          "internalType": "uint256",
          "name": "",
          "type": "uint256"
        }
      ],
      "stateMutability": "view",
      "type": "function",
      "constant": true
    },
    {
      "inputs": [
        {
          "internalType": "address",
          "name": "from",
          "type": "address"
        },
        {
          "internalType": "address",
          "name": "to",
          "type": "address"
        },
        {
          "internalType": "uint256",
          "name": "tokenId",
          "type": "uint256"
        }
      ],
      "name": "transferFrom",
      "outputs": [],
      "stateMutability": "nonpayable",
      "type": "function"
    },
    {
      "inputs": [
        {
          "internalType": "address",
          "name": "newOwner",
          "type": "address"
        }
      ],
      "name": "transferOwnership",
      "outputs": [],
      "stateMutability": "nonpayable",
      "type": "function"
    },
    {
      "inputs": [],
      "name": "unpause",
      "outputs": [],
      "stateMutability": "nonpayable",
      "type": "function"
    }
  ],
  "bytecode": "0x608060405267016345785d8a000060115560646012553480156200002257600080fd5b506040518060400160405280600881526020017f54616869724e46540000000000000000000000000000000000000000000000008152506040518060400160405280600281526020017f4d4400000000000000000000000000000000000000000000000000000000000081525073465cd41394eb35931f39fdd8507a230ff362f986604051806080016040528060518152602001620058536051913983838282828160029080519060200190620000db92919062000662565b508060039080519060200190620000f492919062000662565b5050506000600c60006101000a81548160ff02191690831515021790555080600e90805190602001906200012a92919062000662565b506200014f6000801b620001436200023f60201b60201c565b6200025b60201b60201c565b620001907f9f2df0fed2c77648de5860a4cc508cd0818c85b8b8a1ab4ceeef8d981c8956a6620001846200023f60201b60201c565b6200025b60201b60201c565b620001d17f65d7a28e3265b37a6474929f336521b332c1681b933f6cb9f3376673440d862a620001c56200023f60201b60201c565b6200025b60201b60201c565b505050620001f4620001e86200023f60201b60201c565b6200027160201b60201c565b81601360006101000a81548173ffffffffffffffffffffffffffffffffffffffff021916908373ffffffffffffffffffffffffffffffffffffffff1602179055505050505062000777565b6000620002566200033760201b620017331760201c565b905090565b6200026d8282620003ea60201b60201c565b5050565b6000600f60009054906101000a900473ffffffffffffffffffffffffffffffffffffffff16905081600f60006101000a81548173ffffffffffffffffffffffffffffffffffffffff021916908373ffffffffffffffffffffffffffffffffffffffff1602179055508173ffffffffffffffffffffffffffffffffffffffff168173ffffffffffffffffffffffffffffffffffffffff167f8be0079c531659141344cd1fd0a4f28419497f9722a3daafe3b4186f6b6457e060405160405180910390a35050565b60003073ffffffffffffffffffffffffffffffffffffffff163373ffffffffffffffffffffffffffffffffffffffff161415620003e357600080368080601f016020809104026020016040519081016040528093929190818152602001838380828437600081840152601f19601f820116905080830192505050505050509050600080369050905073ffffffffffffffffffffffffffffffffffffffff818301511692505050620003e7565b3390505b90565b6200040182826200043260201b620017e41760201c565b6200042d81600160008581526020019081526020016000206200052360201b620018c41790919060201c565b505050565b6200044482826200055b60201b60201c565b6200051f57600160008084815260200190815260200160002060000160008373ffffffffffffffffffffffffffffffffffffffff1673ffffffffffffffffffffffffffffffffffffffff16815260200190815260200160002060006101000a81548160ff021916908315150217905550620004c46200023f60201b60201c565b73ffffffffffffffffffffffffffffffffffffffff168173ffffffffffffffffffffffffffffffffffffffff16837f2f8788117e7eff1d82e926ec794901d17c78024a50270940304540a733656f0d60405160405180910390a45b5050565b600062000553836000018373ffffffffffffffffffffffffffffffffffffffff1660001b620005c560201b60201c565b905092915050565b600080600084815260200190815260200160002060000160008373ffffffffffffffffffffffffffffffffffffffff1673ffffffffffffffffffffffffffffffffffffffff16815260200190815260200160002060009054906101000a900460ff16905092915050565b6000620005d983836200063f60201b60201c565b6200063457826000018290806001815401808255809150506001900390600052602060002001600090919091909150558260000180549050836001016000848152602001908152602001600020819055506001905062000639565b600090505b92915050565b600080836001016000848152602001908152602001600020541415905092915050565b828054620006709062000712565b90600052602060002090601f016020900481019282620006945760008555620006e0565b82601f10620006af57805160ff1916838001178555620006e0565b82800160010185558215620006e0579182015b82811115620006df578251825591602001919060010190620006c2565b5b509050620006ef9190620006f3565b5090565b5b808211156200070e576000816000905550600101620006f4565b5090565b600060028204905060018216806200072b57607f821691505b6020821081141562000742576200074162000748565b5b50919050565b7f4e487b7100000000000000000000000000000000000000000000000000000000600052602260045260246000fd5b6150cc80620007876000396000f3fe60806040526004361061021a5760003560e01c8063715018a611610123578063b88d4fde116100ab578063d547741f1161006f578063d547741f146107e8578063d547cfb714610811578063e63ab1e91461083c578063e985e9c514610867578063f2fde38b146108a45761021a565b8063b88d4fde146106ef578063c87b56dd14610718578063ca15c87314610755578063cd7c032614610792578063d5391393146107bd5761021a565b80639010d07c116100f25780639010d07c146105f657806391d148541461063357806395d89b4114610670578063a217fddf1461069b578063a22cb465146106c65761021a565b8063715018a614610581578063755edd17146105985780638456cb59146105b45780638da5cb5b146105cb5761021a565b806336568abe116101a65780634f6ccce7116101755780634f6ccce7146104765780635c975abb146104b35780636352211e146104de5780636a6278421461051b57806370a08231146105445761021a565b806336568abe146103e45780633f4ba83a1461040d57806342842e0e1461042457806342966c681461044d5761021a565b806318160ddd116101ed57806318160ddd146102ed57806323b872dd14610318578063248a9ca3146103415780632f2ff15d1461037e5780632f745c59146103a75761021a565b806301ffc9a71461021f57806306fdde031461025c578063081812fc14610287578063095ea7b3146102c4575b600080fd5b34801561022b57600080fd5b5061024660048036038101906102419190613b66565b6108cd565b604051610253919061480b565b60405180910390f35b34801561026857600080fd5b506102716108df565b60405161027e9190614841565b60405180910390f35b34801561029357600080fd5b506102ae60048036038101906102a99190613be1565b610971565b6040516102bb91906147a4565b60405180910390f35b3480156102d057600080fd5b506102eb60048036038101906102e69190613a89565b6109f6565b005b3480156102f957600080fd5b50610302610b0e565b60405161030f9190614bc3565b60405180910390f35b34801561032457600080fd5b5061033f600480360381019061033a9190613983565b610b1b565b005b34801561034d57600080fd5b5061036860048036038101906103639190613ac5565b610b7b565b6040516103759190614826565b60405180910390f35b34801561038a57600080fd5b506103a560048036038101906103a09190613aee565b610b9a565b005b3480156103b357600080fd5b506103ce60048036038101906103c99190613a89565b610bc3565b6040516103db9190614bc3565b60405180910390f35b3480156103f057600080fd5b5061040b60048036038101906104069190613aee565b610c68565b005b34801561041957600080fd5b50610422610ceb565b005b34801561043057600080fd5b5061044b60048036038101906104469190613983565b610d65565b005b34801561045957600080fd5b50610474600480360381019061046f9190613be1565b610d85565b005b34801561048257600080fd5b5061049d60048036038101906104989190613be1565b610de1565b6040516104aa9190614bc3565b60405180910390f35b3480156104bf57600080fd5b506104c8610e78565b6040516104d5919061480b565b60405180910390f35b3480156104ea57600080fd5b5061050560048036038101906105009190613be1565b610e8f565b60405161051291906147a4565b60405180910390f35b34801561052757600080fd5b50610542600480360381019061053d919061391e565b610f41565b005b34801561055057600080fd5b5061056b6004803603810190610566919061391e565b610fd1565b6040516105789190614bc3565b60405180910390f35b34801561058d57600080fd5b50610596611089565b005b6105b260048036038101906105ad919061391e565b611111565b005b3480156105c057600080fd5b506105c96111e7565b005b3480156105d757600080fd5b506105e0611261565b6040516105ed91906147a4565b60405180910390f35b34801561060257600080fd5b5061061d60048036038101906106189190613b2a565b61128b565b60405161062a91906147a4565b60405180910390f35b34801561063f57600080fd5b5061065a60048036038101906106559190613aee565b6112ba565b604051610667919061480b565b60405180910390f35b34801561067c57600080fd5b50610685611324565b6040516106929190614841565b60405180910390f35b3480156106a757600080fd5b506106b06113b6565b6040516106bd9190614826565b60405180910390f35b3480156106d257600080fd5b506106ed60048036038101906106e89190613a4d565b6113bd565b005b3480156106fb57600080fd5b50610716600480360381019061071191906139d2565b6113d3565b005b34801561072457600080fd5b5061073f600480360381019061073a9190613be1565b611435565b60405161074c9190614841565b60405180910390f35b34801561076157600080fd5b5061077c60048036038101906107779190613ac5565b61146f565b6040516107899190614bc3565b60405180910390f35b34801561079e57600080fd5b506107a7611493565b6040516107b491906147a4565b60405180910390f35b3480156107c957600080fd5b506107d26114b9565b6040516107df9190614826565b60405180910390f35b3480156107f457600080fd5b5061080f600480360381019061080a9190613aee565b6114dd565b005b34801561081d57600080fd5b50610826611506565b6040516108339190614841565b60405180910390f35b34801561084857600080fd5b50610851611515565b60405161085e9190614826565b60405180910390f35b34801561087357600080fd5b5061088e60048036038101906108899190613947565b611539565b60405161089b919061480b565b60405180910390f35b3480156108b057600080fd5b506108cb60048036038101906108c6919061391e565b61163b565b005b60006108d8826118f4565b9050919050565b6060600280546108ee90614e93565b80601f016020809104026020016040519081016040528092919081815260200182805461091a90614e93565b80156109675780601f1061093c57610100808354040283529160200191610967565b820191906000526020600020905b81548152906001019060200180831161094a57829003601f168201915b5050505050905090565b600061097c8261196e565b6109bb576040517f08c379a00000000000000000000000000000000000000000000000000000000081526004016109b290614a83565b60405180910390fd5b6006600083815260200190815260200160002060009054906101000a900473ffffffffffffffffffffffffffffffffffffffff169050919050565b6000610a0182610e8f565b90508073ffffffffffffffffffffffffffffffffffffffff168373ffffffffffffffffffffffffffffffffffffffff161415610a72576040517f08c379a0000000000000000000000000000000000000000000000000000000008152600401610a6990614ae3565b60405180910390fd5b8073ffffffffffffffffffffffffffffffffffffffff16610a916119da565b73ffffffffffffffffffffffffffffffffffffffff161480610ac05750610abf81610aba6119da565b611539565b5b610aff576040517f08c379a0000000000000000000000000000000000000000000000000000000008152600401610af690614a03565b60405180910390fd5b610b0983836119e9565b505050565b6000600a80549050905090565b610b2c610b266119da565b82611aa2565b610b6b576040517f08c379a0000000000000000000000000000000000000000000000000000000008152600401610b6290614b03565b60405180910390fd5b610b76838383611b80565b505050565b6000806000838152602001908152602001600020600101549050919050565b610ba382610b7b565b610bb481610baf6119da565b611ddc565b610bbe8383611e79565b505050565b6000610bce83610fd1565b8210610c0f576040517f08c379a0000000000000000000000000000000000000000000000000000000008152600401610c06906148e3565b60405180910390fd5b600860008473ffffffffffffffffffffffffffffffffffffffff1673ffffffffffffffffffffffffffffffffffffffff168152602001908152602001600020600083815260200190815260200160002054905092915050565b610c706119da565b73ffffffffffffffffffffffffffffffffffffffff168173ffffffffffffffffffffffffffffffffffffffff1614610cdd576040517f08c379a0000000000000000000000000000000000000000000000000000000008152600401610cd490614ba3565b60405180910390fd5b610ce78282611ead565b5050565b610d1c7f65d7a28e3265b37a6474929f336521b332c1681b933f6cb9f3376673440d862a610d176119da565b6112ba565b610d5b576040517f08c379a0000000000000000000000000000000000000000000000000000000008152600401610d5290614b83565b60405180910390fd5b610d63611ee1565b565b610d80838383604051806020016040528060008152506113d3565b505050565b610d96610d906119da565b82611aa2565b610dd5576040517f08c379a0000000000000000000000000000000000000000000000000000000008152600401610dcc90614b63565b60405180910390fd5b610dde81611f83565b50565b6000610deb610b0e565b8210610e2c576040517f08c379a0000000000000000000000000000000000000000000000000000000008152600401610e2390614b23565b60405180910390fd5b600a8281548110610e66577f4e487b7100000000000000000000000000000000000000000000000000000000600052603260045260246000fd5b90600052602060002001549050919050565b6000600c60009054906101000a900460ff16905090565b6000806004600084815260200190815260200160002060009054906101000a900473ffffffffffffffffffffffffffffffffffffffff169050600073ffffffffffffffffffffffffffffffffffffffff168173ffffffffffffffffffffffffffffffffffffffff161415610f38576040517f08c379a0000000000000000000000000000000000000000000000000000000008152600401610f2f90614a43565b60405180910390fd5b80915050919050565b610f727f9f2df0fed2c77648de5860a4cc508cd0818c85b8b8a1ab4ceeef8d981c8956a6610f6d6119da565b6112ba565b610fb1576040517f08c379a0000000000000000000000000000000000000000000000000000000008152600401610fa890614b43565b60405180910390fd5b610fc481610fbf600d612094565b6120a2565b610fce600d612270565b50565b60008073ffffffffffffffffffffffffffffffffffffffff168273ffffffffffffffffffffffffffffffffffffffff161415611042576040517f08c379a000000000000000000000000000000000000000000000000000000000815260040161103990614a23565b60405180910390fd5b600560008373ffffffffffffffffffffffffffffffffffffffff1673ffffffffffffffffffffffffffffffffffffffff168152602001908152602001600020549050919050565b6110916119da565b73ffffffffffffffffffffffffffffffffffffffff166110af611261565b73ffffffffffffffffffffffffffffffffffffffff1614611105576040517f08c379a00000000000000000000000000000000000000000000000000000000081526004016110fc90614aa3565b60405180910390fd5b61110f6000612286565b565b60125461111c610b0e565b111561112757600080fd5b60115434101561116c576040517f08c379a0000000000000000000000000000000000000000000000000000000008152600401611163906148c3565b60405180910390fd5b737b25c04a313cdff4eb03334a3f7b8e08c756266b73ffffffffffffffffffffffffffffffffffffffff166108fc349081150290604051600060405180830381858888f193505050501580156111c6573d6000803e3d6000fd5b506111d16010612270565b6111e4816111df6010612094565b6120a2565b50565b6112187f65d7a28e3265b37a6474929f336521b332c1681b933f6cb9f3376673440d862a6112136119da565b6112ba565b611257576040517f08c379a000000000000000000000000000000000000000000000000000000000815260040161124e90614963565b60405180910390fd5b61125f61234c565b565b6000600f60009054906101000a900473ffffffffffffffffffffffffffffffffffffffff16905090565b60006112b282600160008681526020019081526020016000206123ef90919063ffffffff16565b905092915050565b600080600084815260200190815260200160002060000160008373ffffffffffffffffffffffffffffffffffffffff1673ffffffffffffffffffffffffffffffffffffffff16815260200190815260200160002060009054906101000a900460ff16905092915050565b60606003805461133390614e93565b80601f016020809104026020016040519081016040528092919081815260200182805461135f90614e93565b80156113ac5780601f10611381576101008083540402835291602001916113ac565b820191906000526020600020905b81548152906001019060200180831161138f57829003601f168201915b5050505050905090565b6000801b81565b6113cf6113c86119da565b8383612409565b5050565b6113e46113de6119da565b83611aa2565b611423576040517f08c379a000000000000000000000000000000000000000000000000000000000815260040161141a90614b03565b60405180910390fd5b61142f84848484612576565b50505050565b606061143f611506565b611448836125d2565b60405160200161145992919061473b565b6040516020818303038152906040529050919050565b600061148c6001600084815260200190815260200160002061277f565b9050919050565b601360009054906101000a900473ffffffffffffffffffffffffffffffffffffffff1681565b7f9f2df0fed2c77648de5860a4cc508cd0818c85b8b8a1ab4ceeef8d981c8956a681565b6114e682610b7b565b6114f7816114f26119da565b611ddc565b6115018383611ead565b505050565b6060611510612794565b905090565b7f65d7a28e3265b37a6474929f336521b332c1681b933f6cb9f3376673440d862a81565b600080601360009054906101000a900473ffffffffffffffffffffffffffffffffffffffff1690508273ffffffffffffffffffffffffffffffffffffffff168173ffffffffffffffffffffffffffffffffffffffff1663c4552791866040518263ffffffff1660e01b81526004016115b191906147a4565b60206040518083038186803b1580156115c957600080fd5b505afa1580156115dd573d6000803e3d6000fd5b505050506040513d601f19601f820116820180604052508101906116019190613bb8565b73ffffffffffffffffffffffffffffffffffffffff161415611627576001915050611635565b6116318484612826565b9150505b92915050565b6116436119da565b73ffffffffffffffffffffffffffffffffffffffff16611661611261565b73ffffffffffffffffffffffffffffffffffffffff16146116b7576040517f08c379a00000000000000000000000000000000000000000000000000000000081526004016116ae90614aa3565b60405180910390fd5b600073ffffffffffffffffffffffffffffffffffffffff168173ffffffffffffffffffffffffffffffffffffffff161415611727576040517f08c379a000000000000000000000000000000000000000000000000000000000815260040161171e90614923565b60405180910390fd5b61173081612286565b50565b60003073ffffffffffffffffffffffffffffffffffffffff163373ffffffffffffffffffffffffffffffffffffffff1614156117dd57600080368080601f016020809104026020016040519081016040528093929190818152602001838380828437600081840152601f19601f820116905080830192505050505050509050600080369050905073ffffffffffffffffffffffffffffffffffffffff8183015116925050506117e1565b3390505b90565b6117ee82826112ba565b6118c057600160008084815260200190815260200160002060000160008373ffffffffffffffffffffffffffffffffffffffff1673ffffffffffffffffffffffffffffffffffffffff16815260200190815260200160002060006101000a81548160ff0219169083151502179055506118656119da565b73ffffffffffffffffffffffffffffffffffffffff168173ffffffffffffffffffffffffffffffffffffffff16837f2f8788117e7eff1d82e926ec794901d17c78024a50270940304540a733656f0d60405160405180910390a45b5050565b60006118ec836000018373ffffffffffffffffffffffffffffffffffffffff1660001b6128ba565b905092915050565b60007f780e9d63000000000000000000000000000000000000000000000000000000007bffffffffffffffffffffffffffffffffffffffffffffffffffffffff1916827bffffffffffffffffffffffffffffffffffffffffffffffffffffffff1916148061196757506119668261292a565b5b9050919050565b60008073ffffffffffffffffffffffffffffffffffffffff166004600084815260200190815260200160002060009054906101000a900473ffffffffffffffffffffffffffffffffffffffff1673ffffffffffffffffffffffffffffffffffffffff1614159050919050565b60006119e4611733565b905090565b816006600083815260200190815260200160002060006101000a81548173ffffffffffffffffffffffffffffffffffffffff021916908373ffffffffffffffffffffffffffffffffffffffff160217905550808273ffffffffffffffffffffffffffffffffffffffff16611a5c83610e8f565b73ffffffffffffffffffffffffffffffffffffffff167f8c5be1e5ebec7d5bd14f71427d1e84f3dd0314c0f7b2291e5b200ac8c7c3b92560405160405180910390a45050565b6000611aad8261196e565b611aec576040517f08c379a0000000000000000000000000000000000000000000000000000000008152600401611ae3906149c3565b60405180910390fd5b6000611af783610e8f565b90508073ffffffffffffffffffffffffffffffffffffffff168473ffffffffffffffffffffffffffffffffffffffff161480611b6657508373ffffffffffffffffffffffffffffffffffffffff16611b4e84610971565b73ffffffffffffffffffffffffffffffffffffffff16145b80611b775750611b768185611539565b5b91505092915050565b8273ffffffffffffffffffffffffffffffffffffffff16611ba082610e8f565b73ffffffffffffffffffffffffffffffffffffffff1614611bf6576040517f08c379a0000000000000000000000000000000000000000000000000000000008152600401611bed90614ac3565b60405180910390fd5b600073ffffffffffffffffffffffffffffffffffffffff168273ffffffffffffffffffffffffffffffffffffffff161415611c66576040517f08c379a0000000000000000000000000000000000000000000000000000000008152600401611c5d90614983565b60405180910390fd5b611c71838383612a0c565b611c7c6000826119e9565b6001600560008573ffffffffffffffffffffffffffffffffffffffff1673ffffffffffffffffffffffffffffffffffffffff1681526020019081526020016000206000828254611ccc9190614d63565b925050819055506001600560008473ffffffffffffffffffffffffffffffffffffffff1673ffffffffffffffffffffffffffffffffffffffff1681526020019081526020016000206000828254611d239190614c82565b92505081905550816004600083815260200190815260200160002060006101000a81548173ffffffffffffffffffffffffffffffffffffffff021916908373ffffffffffffffffffffffffffffffffffffffff160217905550808273ffffffffffffffffffffffffffffffffffffffff168473ffffffffffffffffffffffffffffffffffffffff167fddf252ad1be2c89b69c2b068fc378daa952ba7f163c4a11628f55a4df523b3ef60405160405180910390a4505050565b611de682826112ba565b611e7557611e0b8173ffffffffffffffffffffffffffffffffffffffff166014612a1c565b611e198360001c6020612a1c565b604051602001611e2a92919061476a565b6040516020818303038152906040526040517f08c379a0000000000000000000000000000000000000000000000000000000008152600401611e6c9190614841565b60405180910390fd5b5050565b611e8382826117e4565b611ea881600160008581526020019081526020016000206118c490919063ffffffff16565b505050565b611eb78282612d16565b611edc8160016000858152602001908152602001600020612df790919063ffffffff16565b505050565b611ee9610e78565b611f28576040517f08c379a0000000000000000000000000000000000000000000000000000000008152600401611f1f906148a3565b60405180910390fd5b6000600c60006101000a81548160ff0219169083151502179055507f5db9ee0a495bf2e6ff9c91a7834c1ba4fdd244a5e8aa4e537bd38aeae4b073aa611f6c6119da565b604051611f7991906147a4565b60405180910390a1565b6000611f8e82610e8f565b9050611f9c81600084612a0c565b611fa76000836119e9565b6001600560008373ffffffffffffffffffffffffffffffffffffffff1673ffffffffffffffffffffffffffffffffffffffff1681526020019081526020016000206000828254611ff79190614d63565b925050819055506004600083815260200190815260200160002060006101000a81549073ffffffffffffffffffffffffffffffffffffffff021916905581600073ffffffffffffffffffffffffffffffffffffffff168273ffffffffffffffffffffffffffffffffffffffff167fddf252ad1be2c89b69c2b068fc378daa952ba7f163c4a11628f55a4df523b3ef60405160405180910390a45050565b600081600001549050919050565b600073ffffffffffffffffffffffffffffffffffffffff168273ffffffffffffffffffffffffffffffffffffffff161415612112576040517f08c379a000000000000000000000000000000000000000000000000000000000815260040161210990614a63565b60405180910390fd5b61211b8161196e565b1561215b576040517f08c379a000000000000000000000000000000000000000000000000000000000815260040161215290614943565b60405180910390fd5b61216760008383612a0c565b6001600560008473ffffffffffffffffffffffffffffffffffffffff1673ffffffffffffffffffffffffffffffffffffffff16815260200190815260200160002060008282546121b79190614c82565b92505081905550816004600083815260200190815260200160002060006101000a81548173ffffffffffffffffffffffffffffffffffffffff021916908373ffffffffffffffffffffffffffffffffffffffff160217905550808273ffffffffffffffffffffffffffffffffffffffff16600073ffffffffffffffffffffffffffffffffffffffff167fddf252ad1be2c89b69c2b068fc378daa952ba7f163c4a11628f55a4df523b3ef60405160405180910390a45050565b6001816000016000828254019250508190555050565b6000600f60009054906101000a900473ffffffffffffffffffffffffffffffffffffffff16905081600f60006101000a81548173ffffffffffffffffffffffffffffffffffffffff021916908373ffffffffffffffffffffffffffffffffffffffff1602179055508173ffffffffffffffffffffffffffffffffffffffff168173ffffffffffffffffffffffffffffffffffffffff167f8be0079c531659141344cd1fd0a4f28419497f9722a3daafe3b4186f6b6457e060405160405180910390a35050565b612354610e78565b15612394576040517f08c379a000000000000000000000000000000000000000000000000000000000815260040161238b906149e3565b60405180910390fd5b6001600c60006101000a81548160ff0219169083151502179055507f62e78cea01bee320cd4e420270b5ea74000d11b0c9f74754ebdbfc544b05a2586123d86119da565b6040516123e591906147a4565b60405180910390a1565b60006123fe8360000183612e27565b60001c905092915050565b8173ffffffffffffffffffffffffffffffffffffffff168373ffffffffffffffffffffffffffffffffffffffff161415612478576040517f08c379a000000000000000000000000000000000000000000000000000000000815260040161246f906149a3565b60405180910390fd5b80600760008573ffffffffffffffffffffffffffffffffffffffff1673ffffffffffffffffffffffffffffffffffffffff16815260200190815260200160002060008473ffffffffffffffffffffffffffffffffffffffff1673ffffffffffffffffffffffffffffffffffffffff16815260200190815260200160002060006101000a81548160ff0219169083151502179055508173ffffffffffffffffffffffffffffffffffffffff168373ffffffffffffffffffffffffffffffffffffffff167f17307eab39ab6107e8899845ad3d59bd9653f200f220920489ca2b5937696c3183604051612569919061480b565b60405180910390a3505050565b612581848484611b80565b61258d84848484612e78565b6125cc576040517f08c379a00000000000000000000000000000000000000000000000000000000081526004016125c390614903565b60405180910390fd5b50505050565b6060600082141561261a576040518060400160405280600181526020017f3000000000000000000000000000000000000000000000000000000000000000815250905061277a565b600082905060005b6000821461264c57808061263590614ec5565b915050600a826126459190614cd8565b9150612622565b60008167ffffffffffffffff81111561268e577f4e487b7100000000000000000000000000000000000000000000000000000000600052604160045260246000fd5b6040519080825280601f01601f1916602001820160405280156126c05781602001600182028036833780820191505090505b5090505b60008514612773576001826126d99190614d63565b9150600a856126e89190614f0e565b60306126f49190614c82565b60f81b818381518110612730577f4e487b7100000000000000000000000000000000000000000000000000000000600052603260045260246000fd5b60200101907effffffffffffffffffffffffffffffffffffffffffffffffffffffffffffff1916908160001a905350600a8561276c9190614cd8565b94506126c4565b8093505050505b919050565b600061278d8260000161300f565b9050919050565b6060600e80546127a390614e93565b80601f01602080910402602001604051908101604052809291908181526020018280546127cf90614e93565b801561281c5780601f106127f15761010080835404028352916020019161281c565b820191906000526020600020905b8154815290600101906020018083116127ff57829003601f168201915b5050505050905090565b6000600760008473ffffffffffffffffffffffffffffffffffffffff1673ffffffffffffffffffffffffffffffffffffffff16815260200190815260200160002060008373ffffffffffffffffffffffffffffffffffffffff1673ffffffffffffffffffffffffffffffffffffffff16815260200190815260200160002060009054906101000a900460ff16905092915050565b60006128c68383613020565b61291f578260000182908060018154018082558091505060019003906000526020600020016000909190919091505582600001805490508360010160008481526020019081526020016000208190555060019050612924565b600090505b92915050565b60007f80ac58cd000000000000000000000000000000000000000000000000000000007bffffffffffffffffffffffffffffffffffffffffffffffffffffffff1916827bffffffffffffffffffffffffffffffffffffffffffffffffffffffff191614806129f557507f5b5e139f000000000000000000000000000000000000000000000000000000007bffffffffffffffffffffffffffffffffffffffffffffffffffffffff1916827bffffffffffffffffffffffffffffffffffffffffffffffffffffffff1916145b80612a055750612a0482613043565b5b9050919050565b612a178383836130bd565b505050565b606060006002836002612a2f9190614d09565b612a399190614c82565b67ffffffffffffffff811115612a78577f4e487b7100000000000000000000000000000000000000000000000000000000600052604160045260246000fd5b6040519080825280601f01601f191660200182016040528015612aaa5781602001600182028036833780820191505090505b5090507f300000000000000000000000000000000000000000000000000000000000000081600081518110612b08577f4e487b7100000000000000000000000000000000000000000000000000000000600052603260045260246000fd5b60200101907effffffffffffffffffffffffffffffffffffffffffffffffffffffffffffff1916908160001a9053507f780000000000000000000000000000000000000000000000000000000000000081600181518110612b92577f4e487b7100000000000000000000000000000000000000000000000000000000600052603260045260246000fd5b60200101907effffffffffffffffffffffffffffffffffffffffffffffffffffffffffffff1916908160001a90535060006001846002612bd29190614d09565b612bdc9190614c82565b90505b6001811115612cc8577f3031323334353637383961626364656600000000000000000000000000000000600f861660108110612c44577f4e487b7100000000000000000000000000000000000000000000000000000000600052603260045260246000fd5b1a60f81b828281518110612c81577f4e487b7100000000000000000000000000000000000000000000000000000000600052603260045260246000fd5b60200101907effffffffffffffffffffffffffffffffffffffffffffffffffffffffffffff1916908160001a905350600485901c945080612cc190614e69565b9050612bdf565b5060008414612d0c576040517f08c379a0000000000000000000000000000000000000000000000000000000008152600401612d0390614863565b60405180910390fd5b8091505092915050565b612d2082826112ba565b15612df357600080600084815260200190815260200160002060000160008373ffffffffffffffffffffffffffffffffffffffff1673ffffffffffffffffffffffffffffffffffffffff16815260200190815260200160002060006101000a81548160ff021916908315150217905550612d986119da565b73ffffffffffffffffffffffffffffffffffffffff168173ffffffffffffffffffffffffffffffffffffffff16837ff6391f5c32d9c69d2a47ea670b442974b53935d1edc7fd64eb21e047a839171b60405160405180910390a45b5050565b6000612e1f836000018373ffffffffffffffffffffffffffffffffffffffff1660001b613115565b905092915050565b6000826000018281548110612e65577f4e487b7100000000000000000000000000000000000000000000000000000000600052603260045260246000fd5b9060005260206000200154905092915050565b6000612e998473ffffffffffffffffffffffffffffffffffffffff1661329b565b15613002578373ffffffffffffffffffffffffffffffffffffffff1663150b7a02612ec26119da565b8786866040518563ffffffff1660e01b8152600401612ee494939291906147bf565b602060405180830381600087803b158015612efe57600080fd5b505af1925050508015612f2f57506040513d601f19601f82011682018060405250810190612f2c9190613b8f565b60015b612fb2573d8060008114612f5f576040519150601f19603f3d011682016040523d82523d6000602084013e612f64565b606091505b50600081511415612faa576040517f08c379a0000000000000000000000000000000000000000000000000000000008152600401612fa190614903565b60405180910390fd5b805181602001fd5b63150b7a0260e01b7bffffffffffffffffffffffffffffffffffffffffffffffffffffffff1916817bffffffffffffffffffffffffffffffffffffffffffffffffffffffff191614915050613007565b600190505b949350505050565b600081600001805490509050919050565b600080836001016000848152602001908152602001600020541415905092915050565b60007f5a05180f000000000000000000000000000000000000000000000000000000007bffffffffffffffffffffffffffffffffffffffffffffffffffffffff1916827bffffffffffffffffffffffffffffffffffffffffffffffffffffffff191614806130b657506130b5826132ae565b5b9050919050565b6130c8838383613328565b6130d0610e78565b15613110576040517f08c379a000000000000000000000000000000000000000000000000000000000815260040161310790614883565b60405180910390fd5b505050565b6000808360010160008481526020019081526020016000205490506000811461328f5760006001826131479190614d63565b905060006001866000018054905061315f9190614d63565b905081811461321a5760008660000182815481106131a6577f4e487b7100000000000000000000000000000000000000000000000000000000600052603260045260246000fd5b90600052602060002001549050808760000184815481106131f0577f4e487b7100000000000000000000000000000000000000000000000000000000600052603260045260246000fd5b90600052602060002001819055508387600101600083815260200190815260200160002081905550505b85600001805480613254577f4e487b7100000000000000000000000000000000000000000000000000000000600052603160045260246000fd5b600190038181906000526020600020016000905590558560010160008681526020019081526020016000206000905560019350505050613295565b60009150505b92915050565b600080823b905060008111915050919050565b60007f7965db0b000000000000000000000000000000000000000000000000000000007bffffffffffffffffffffffffffffffffffffffffffffffffffffffff1916827bffffffffffffffffffffffffffffffffffffffffffffffffffffffff1916148061332157506133208261343c565b5b9050919050565b6133338383836134a6565b600073ffffffffffffffffffffffffffffffffffffffff168373ffffffffffffffffffffffffffffffffffffffff16141561337657613371816134ab565b6133b5565b8173ffffffffffffffffffffffffffffffffffffffff168373ffffffffffffffffffffffffffffffffffffffff16146133b4576133b383826134f4565b5b5b600073ffffffffffffffffffffffffffffffffffffffff168273ffffffffffffffffffffffffffffffffffffffff1614156133f8576133f381613661565b613437565b8273ffffffffffffffffffffffffffffffffffffffff168273ffffffffffffffffffffffffffffffffffffffff16146134365761343582826137a4565b5b5b505050565b60007f01ffc9a7000000000000000000000000000000000000000000000000000000007bffffffffffffffffffffffffffffffffffffffffffffffffffffffff1916827bffffffffffffffffffffffffffffffffffffffffffffffffffffffff1916149050919050565b505050565b600a80549050600b600083815260200190815260200160002081905550600a81908060018154018082558091505060019003906000526020600020016000909190919091505550565b6000600161350184610fd1565b61350b9190614d63565b90506000600960008481526020019081526020016000205490508181146135f0576000600860008673ffffffffffffffffffffffffffffffffffffffff1673ffffffffffffffffffffffffffffffffffffffff168152602001908152602001600020600084815260200190815260200160002054905080600860008773ffffffffffffffffffffffffffffffffffffffff1673ffffffffffffffffffffffffffffffffffffffff168152602001908152602001600020600084815260200190815260200160002081905550816009600083815260200190815260200160002081905550505b6009600084815260200190815260200160002060009055600860008573ffffffffffffffffffffffffffffffffffffffff1673ffffffffffffffffffffffffffffffffffffffff16815260200190815260200160002060008381526020019081526020016000206000905550505050565b60006001600a805490506136759190614d63565b90506000600b60008481526020019081526020016000205490506000600a83815481106136cb577f4e487b7100000000000000000000000000000000000000000000000000000000600052603260045260246000fd5b9060005260206000200154905080600a8381548110613713577f4e487b7100000000000000000000000000000000000000000000000000000000600052603260045260246000fd5b906000526020600020018190555081600b600083815260200190815260200160002081905550600b600085815260200190815260200160002060009055600a805480613788577f4e487b7100000000000000000000000000000000000000000000000000000000600052603160045260246000fd5b6001900381819060005260206000200160009055905550505050565b60006137af83610fd1565b905081600860008573ffffffffffffffffffffffffffffffffffffffff1673ffffffffffffffffffffffffffffffffffffffff168152602001908152602001600020600083815260200190815260200160002081905550806009600084815260200190815260200160002081905550505050565b600061383661383184614c0f565b614bde565b90508281526020810184848401111561384e57600080fd5b613859848285614e27565b509392505050565b6000813590506138708161500c565b92915050565b60008135905061388581615023565b92915050565b60008135905061389a8161503a565b92915050565b6000813590506138af81615051565b92915050565b6000815190506138c481615051565b92915050565b600082601f8301126138db57600080fd5b81356138eb848260208601613823565b91505092915050565b60008151905061390381615068565b92915050565b6000813590506139188161507f565b92915050565b60006020828403121561393057600080fd5b600061393e84828501613861565b91505092915050565b6000806040838503121561395a57600080fd5b600061396885828601613861565b925050602061397985828601613861565b9150509250929050565b60008060006060848603121561399857600080fd5b60006139a686828701613861565b93505060206139b786828701613861565b92505060406139c886828701613909565b9150509250925092565b600080600080608085870312156139e857600080fd5b60006139f687828801613861565b9450506020613a0787828801613861565b9350506040613a1887828801613909565b925050606085013567ffffffffffffffff811115613a3557600080fd5b613a41878288016138ca565b91505092959194509250565b60008060408385031215613a6057600080fd5b6000613a6e85828601613861565b9250506020613a7f85828601613876565b9150509250929050565b60008060408385031215613a9c57600080fd5b6000613aaa85828601613861565b9250506020613abb85828601613909565b9150509250929050565b600060208284031215613ad757600080fd5b6000613ae58482850161388b565b91505092915050565b60008060408385031215613b0157600080fd5b6000613b0f8582860161388b565b9250506020613b2085828601613861565b9150509250929050565b60008060408385031215613b3d57600080fd5b6000613b4b8582860161388b565b9250506020613b5c85828601613909565b9150509250929050565b600060208284031215613b7857600080fd5b6000613b86848285016138a0565b91505092915050565b600060208284031215613ba157600080fd5b6000613baf848285016138b5565b91505092915050565b600060208284031215613bca57600080fd5b6000613bd8848285016138f4565b91505092915050565b600060208284031215613bf357600080fd5b6000613c0184828501613909565b91505092915050565b613c1381614d97565b82525050565b613c2281614da9565b82525050565b613c3181614db5565b82525050565b6000613c4282614c3f565b613c4c8185614c55565b9350613c5c818560208601614e36565b613c6581614ffb565b840191505092915050565b6000613c7b82614c4a565b613c858185614c66565b9350613c95818560208601614e36565b613c9e81614ffb565b840191505092915050565b6000613cb482614c4a565b613cbe8185614c77565b9350613cce818560208601614e36565b80840191505092915050565b6000613ce7602083614c66565b91507f537472696e67733a20686578206c656e67746820696e73756666696369656e746000830152602082019050919050565b6000613d27602b83614c66565b91507f4552433732315061757361626c653a20746f6b656e207472616e73666572207760008301527f68696c65207061757365640000000000000000000000000000000000000000006020830152604082019050919050565b6000613d8d601483614c66565b91507f5061757361626c653a206e6f74207061757365640000000000000000000000006000830152602082019050919050565b6000613dcd601083614c66565b91507f4e6f7420456e6f756768204574686572000000000000000000000000000000006000830152602082019050919050565b6000613e0d602b83614c66565b91507f455243373231456e756d657261626c653a206f776e657220696e646578206f7560008301527f74206f6620626f756e64730000000000000000000000000000000000000000006020830152604082019050919050565b6000613e73603283614c66565b91507f4552433732313a207472616e7366657220746f206e6f6e20455243373231526560008301527f63656976657220696d706c656d656e74657200000000000000000000000000006020830152604082019050919050565b6000613ed9602683614c66565b91507f4f776e61626c653a206e6577206f776e657220697320746865207a65726f206160008301527f64647265737300000000000000000000000000000000000000000000000000006020830152604082019050919050565b6000613f3f601c83614c66565b91507f4552433732313a20746f6b656e20616c7265616479206d696e746564000000006000830152602082019050919050565b6000613f7f603e83614c66565b91507f4552433732315072657365744d696e7465725061757365724175746f49643a2060008301527f6d75737420686176652070617573657220726f6c6520746f20706175736500006020830152604082019050919050565b6000613fe5602483614c66565b91507f4552433732313a207472616e7366657220746f20746865207a65726f2061646460008301527f72657373000000000000000000000000000000000000000000000000000000006020830152604082019050919050565b600061404b601983614c66565b91507f4552433732313a20617070726f766520746f2063616c6c6572000000000000006000830152602082019050919050565b600061408b602c83614c66565b91507f4552433732313a206f70657261746f7220717565727920666f72206e6f6e657860008301527f697374656e7420746f6b656e00000000000000000000000000000000000000006020830152604082019050919050565b60006140f1601083614c66565b91507f5061757361626c653a20706175736564000000000000000000000000000000006000830152602082019050919050565b6000614131603883614c66565b91507f4552433732313a20617070726f76652063616c6c6572206973206e6f74206f7760008301527f6e6572206e6f7220617070726f76656420666f7220616c6c00000000000000006020830152604082019050919050565b6000614197602a83614c66565b91507f4552433732313a2062616c616e636520717565727920666f7220746865207a6560008301527f726f2061646472657373000000000000000000000000000000000000000000006020830152604082019050919050565b60006141fd602983614c66565b91507f4552433732313a206f776e657220717565727920666f72206e6f6e657869737460008301527f656e7420746f6b656e00000000000000000000000000000000000000000000006020830152604082019050919050565b6000614263602083614c66565b91507f4552433732313a206d696e7420746f20746865207a65726f20616464726573736000830152602082019050919050565b60006142a3602c83614c66565b91507f4552433732313a20617070726f76656420717565727920666f72206e6f6e657860008301527f697374656e7420746f6b656e00000000000000000000000000000000000000006020830152604082019050919050565b6000614309600583614c77565b91507f2e6a736f6e0000000000000000000000000000000000000000000000000000006000830152600582019050919050565b6000614349602083614c66565b91507f4f776e61626c653a2063616c6c6572206973206e6f7420746865206f776e65726000830152602082019050919050565b6000614389602983614c66565b91507f4552433732313a207472616e73666572206f6620746f6b656e2074686174206960008301527f73206e6f74206f776e00000000000000000000000000000000000000000000006020830152604082019050919050565b60006143ef602183614c66565b91507f4552433732313a20617070726f76616c20746f2063757272656e74206f776e6560008301527f72000000000000000000000000000000000000000000000000000000000000006020830152604082019050919050565b6000614455603183614c66565b91507f4552433732313a207472616e736665722063616c6c6572206973206e6f74206f60008301527f776e6572206e6f7220617070726f7665640000000000000000000000000000006020830152604082019050919050565b60006144bb602c83614c66565b91507f455243373231456e756d657261626c653a20676c6f62616c20696e646578206f60008301527f7574206f6620626f756e647300000000000000000000000000000000000000006020830152604082019050919050565b6000614521601783614c77565b91507f416363657373436f6e74726f6c3a206163636f756e74200000000000000000006000830152601782019050919050565b6000614561603d83614c66565b91507f4552433732315072657365744d696e7465725061757365724175746f49643a2060008301527f6d7573742068617665206d696e74657220726f6c6520746f206d696e740000006020830152604082019050919050565b60006145c7603083614c66565b91507f4552433732314275726e61626c653a2063616c6c6572206973206e6f74206f7760008301527f6e6572206e6f7220617070726f766564000000000000000000000000000000006020830152604082019050919050565b600061462d604083614c66565b91507f4552433732315072657365744d696e7465725061757365724175746f49643a2060008301527f6d75737420686176652070617573657220726f6c6520746f20756e70617573656020830152604082019050919050565b6000614693601183614c77565b91507f206973206d697373696e6720726f6c65200000000000000000000000000000006000830152601182019050919050565b60006146d3602f83614c66565b91507f416363657373436f6e74726f6c3a2063616e206f6e6c792072656e6f756e636560008301527f20726f6c657320666f722073656c6600000000000000000000000000000000006020830152604082019050919050565b61473581614e1d565b82525050565b60006147478285613ca9565b91506147538284613ca9565b915061475e826142fc565b91508190509392505050565b600061477582614514565b91506147818285613ca9565b915061478c82614686565b91506147988284613ca9565b91508190509392505050565b60006020820190506147b96000830184613c0a565b92915050565b60006080820190506147d46000830187613c0a565b6147e16020830186613c0a565b6147ee604083018561472c565b81810360608301526148008184613c37565b905095945050505050565b60006020820190506148206000830184613c19565b92915050565b600060208201905061483b6000830184613c28565b92915050565b6000602082019050818103600083015261485b8184613c70565b905092915050565b6000602082019050818103600083015261487c81613cda565b9050919050565b6000602082019050818103600083015261489c81613d1a565b9050919050565b600060208201905081810360008301526148bc81613d80565b9050919050565b600060208201905081810360008301526148dc81613dc0565b9050919050565b600060208201905081810360008301526148fc81613e00565b9050919050565b6000602082019050818103600083015261491c81613e66565b9050919050565b6000602082019050818103600083015261493c81613ecc565b9050919050565b6000602082019050818103600083015261495c81613f32565b9050919050565b6000602082019050818103600083015261497c81613f72565b9050919050565b6000602082019050818103600083015261499c81613fd8565b9050919050565b600060208201905081810360008301526149bc8161403e565b9050919050565b600060208201905081810360008301526149dc8161407e565b9050919050565b600060208201905081810360008301526149fc816140e4565b9050919050565b60006020820190508181036000830152614a1c81614124565b9050919050565b60006020820190508181036000830152614a3c8161418a565b9050919050565b60006020820190508181036000830152614a5c816141f0565b9050919050565b60006020820190508181036000830152614a7c81614256565b9050919050565b60006020820190508181036000830152614a9c81614296565b9050919050565b60006020820190508181036000830152614abc8161433c565b9050919050565b60006020820190508181036000830152614adc8161437c565b9050919050565b60006020820190508181036000830152614afc816143e2565b9050919050565b60006020820190508181036000830152614b1c81614448565b9050919050565b60006020820190508181036000830152614b3c816144ae565b9050919050565b60006020820190508181036000830152614b5c81614554565b9050919050565b60006020820190508181036000830152614b7c816145ba565b9050919050565b60006020820190508181036000830152614b9c81614620565b9050919050565b60006020820190508181036000830152614bbc816146c6565b9050919050565b6000602082019050614bd8600083018461472c565b92915050565b6000604051905081810181811067ffffffffffffffff82111715614c0557614c04614fcc565b5b8060405250919050565b600067ffffffffffffffff821115614c2a57614c29614fcc565b5b601f19601f8301169050602081019050919050565b600081519050919050565b600081519050919050565b600082825260208201905092915050565b600082825260208201905092915050565b600081905092915050565b6000614c8d82614e1d565b9150614c9883614e1d565b9250827fffffffffffffffffffffffffffffffffffffffffffffffffffffffffffffffff03821115614ccd57614ccc614f3f565b5b828201905092915050565b6000614ce382614e1d565b9150614cee83614e1d565b925082614cfe57614cfd614f6e565b5b828204905092915050565b6000614d1482614e1d565b9150614d1f83614e1d565b9250817fffffffffffffffffffffffffffffffffffffffffffffffffffffffffffffffff0483118215151615614d5857614d57614f3f565b5b828202905092915050565b6000614d6e82614e1d565b9150614d7983614e1d565b925082821015614d8c57614d8b614f3f565b5b828203905092915050565b6000614da282614dfd565b9050919050565b60008115159050919050565b6000819050919050565b60007fffffffff0000000000000000000000000000000000000000000000000000000082169050919050565b6000614df682614d97565b9050919050565b600073ffffffffffffffffffffffffffffffffffffffff82169050919050565b6000819050919050565b82818337600083830152505050565b60005b83811015614e54578082015181840152602081019050614e39565b83811115614e63576000848401525b50505050565b6000614e7482614e1d565b91506000821415614e8857614e87614f3f565b5b600182039050919050565b60006002820490506001821680614eab57607f821691505b60208210811415614ebf57614ebe614f9d565b5b50919050565b6000614ed082614e1d565b91507fffffffffffffffffffffffffffffffffffffffffffffffffffffffffffffffff821415614f0357614f02614f3f565b5b600182019050919050565b6000614f1982614e1d565b9150614f2483614e1d565b925082614f3457614f33614f6e565b5b828206905092915050565b7f4e487b7100000000000000000000000000000000000000000000000000000000600052601160045260246000fd5b7f4e487b7100000000000000000000000000000000000000000000000000000000600052601260045260246000fd5b7f4e487b7100000000000000000000000000000000000000000000000000000000600052602260045260246000fd5b7f4e487b7100000000000000000000000000000000000000000000000000000000600052604160045260246000fd5b6000601f19601f8301169050919050565b61501581614d97565b811461502057600080fd5b50565b61502c81614da9565b811461503757600080fd5b50565b61504381614db5565b811461504e57600080fd5b50565b61505a81614dbf565b811461506557600080fd5b50565b61507181614deb565b811461507c57600080fd5b50565b61508881614e1d565b811461509357600080fd5b5056fea2646970667358221220e95eb3152d791b3130c80f6df5169be2d09db958eabe2970be8f577fc12cc7d664736f6c6343000800003368747470733a2f2f676174657761792e70696e6174612e636c6f75642f697066732f516d55655056644b5152636d54325a4848454c5671557256757057556e4c705341656444414869663850576e4d362f",
  "immutableReferences": {},
  "source": "pragma solidity ^0.8.0;\r\n\r\nimport './ERC721Tradable.sol';\r\n\r\n\r\ncontract TestNFT is ERC721Tradable{\r\n\r\n    constructor() ERC721Tradable(\"TahirNFT\", \"MD\",0x465cD41394Eb35931f39fdd8507A230FF362f986,\"https://gateway.pinata.cloud/ipfs/QmUePVdKQRcmT2ZHHELVqUrVupWUnLpSAedDAHif8PWnM6/\") {}\r\n\r\n}",
  "sourcePath": "D:\\Blockchain\\Mint-NFT-Wrapper-ERC721\\contracts\\TestNFT.sol",
  "compiler": {
    "name": "solc",
    "version": "0.8.0+commit.c7dfd78e.Emscripten.clang"
  },
  "schemaVersion": "3.4.4",
  "updatedAt": "2022-01-21T14:54:22.499Z",
  "networkType": "ethereum",
  "devdoc": {
    "kind": "dev",
    "methods": {
      "approve(address,uint256)": {
        "details": "See {IERC721-approve}."
      },
      "balanceOf(address)": {
        "details": "See {IERC721-balanceOf}."
      },
      "burn(uint256)": {
        "details": "Burns `tokenId`. See {ERC721-_burn}. Requirements: - The caller must own `tokenId` or be an approved operator."
      },
      "getApproved(uint256)": {
        "details": "See {IERC721-getApproved}."
      },
      "getRoleAdmin(bytes32)": {
        "details": "Returns the admin role that controls `role`. See {grantRole} and {revokeRole}. To change a role's admin, use {_setRoleAdmin}."
      },
      "getRoleMember(bytes32,uint256)": {
        "details": "Returns one of the accounts that have `role`. `index` must be a value between 0 and {getRoleMemberCount}, non-inclusive. Role bearers are not sorted in any particular way, and their ordering may change at any point. WARNING: When using {getRoleMember} and {getRoleMemberCount}, make sure you perform all queries on the same block. See the following https://forum.openzeppelin.com/t/iterating-over-elements-on-enumerableset-in-openzeppelin-contracts/2296[forum post] for more information."
      },
      "getRoleMemberCount(bytes32)": {
        "details": "Returns the number of accounts that have `role`. Can be used together with {getRoleMember} to enumerate all bearers of a role."
      },
      "grantRole(bytes32,address)": {
        "details": "Grants `role` to `account`. If `account` had not been already granted `role`, emits a {RoleGranted} event. Requirements: - the caller must have ``role``'s admin role."
      },
      "hasRole(bytes32,address)": {
        "details": "Returns `true` if `account` has been granted `role`."
      },
      "mint(address)": {
        "details": "Creates a new token for `to`. Its token ID will be automatically assigned (and available on the emitted {IERC721-Transfer} event), and the token URI autogenerated based on the base URI passed at construction. See {ERC721-_mint}. Requirements: - the caller must have the `MINTER_ROLE`."
      },
      "name()": {
        "details": "See {IERC721Metadata-name}."
      },
      "owner()": {
        "details": "Returns the address of the current owner."
      },
      "ownerOf(uint256)": {
        "details": "See {IERC721-ownerOf}."
      },
      "pause()": {
        "details": "Pauses all token transfers. See {ERC721Pausable} and {Pausable-_pause}. Requirements: - the caller must have the `PAUSER_ROLE`."
      },
      "paused()": {
        "details": "Returns true if the contract is paused, and false otherwise."
      },
      "renounceOwnership()": {
        "details": "Leaves the contract without owner. It will not be possible to call `onlyOwner` functions anymore. Can only be called by the current owner. NOTE: Renouncing ownership will leave the contract without an owner, thereby removing any functionality that is only available to the owner."
      },
      "renounceRole(bytes32,address)": {
        "details": "Revokes `role` from the calling account. Roles are often managed via {grantRole} and {revokeRole}: this function's purpose is to provide a mechanism for accounts to lose their privileges if they are compromised (such as when a trusted device is misplaced). If the calling account had been revoked `role`, emits a {RoleRevoked} event. Requirements: - the caller must be `account`."
      },
      "revokeRole(bytes32,address)": {
        "details": "Revokes `role` from `account`. If `account` had been granted `role`, emits a {RoleRevoked} event. Requirements: - the caller must have ``role``'s admin role."
      },
      "safeTransferFrom(address,address,uint256)": {
        "details": "See {IERC721-safeTransferFrom}."
      },
      "safeTransferFrom(address,address,uint256,bytes)": {
        "details": "See {IERC721-safeTransferFrom}."
      },
      "setApprovalForAll(address,bool)": {
        "details": "See {IERC721-setApprovalForAll}."
      },
      "supportsInterface(bytes4)": {
        "details": "See {IERC165-supportsInterface}."
      },
      "symbol()": {
        "details": "See {IERC721Metadata-symbol}."
      },
      "tokenByIndex(uint256)": {
        "details": "See {IERC721Enumerable-tokenByIndex}."
      },
      "tokenOfOwnerByIndex(address,uint256)": {
        "details": "See {IERC721Enumerable-tokenOfOwnerByIndex}."
      },
      "totalSupply()": {
        "details": "See {IERC721Enumerable-totalSupply}."
      },
      "transferFrom(address,address,uint256)": {
        "details": "See {IERC721-transferFrom}."
      },
      "transferOwnership(address)": {
        "details": "Transfers ownership of the contract to a new account (`newOwner`). Can only be called by the current owner."
      },
      "unpause()": {
        "details": "Unpauses all token transfers. See {ERC721Pausable} and {Pausable-_unpause}. Requirements: - the caller must have the `PAUSER_ROLE`."
      }
    },
    "version": 1
  },
  "userdoc": {
    "kind": "user",
    "methods": {
      "isApprovedForAll(address,address)": {
        "notice": "Override isApprovedForAll to whitelist user's OpenSea proxy accounts to enable gas-less listings."
      }
    },
    "version": 1
  }
}